:020000040800F2
:10000000B00B002045010008050800080F02000899
:1000100001080008B10200082D0A000800000000D5
:10002000000000000000000000000000350800088B
:10003000B5020008000000009701000869080008E8
:100040005F0100085F0100085F0100085F01000810
:100050005F0100085F0100085F0100085F01000800
:100060005F0100085F0100085F0100085F010008F0
:100070005F0100085F0100085F0100085F010008E0
:100080005F0100085F0100085F0100085F010008D0
:100090005F0100085F0100085F0100085F010008C0
:1000A0005F0100085F0100085F0100085F010008B0
:1000B0005F0100085F0100085F0100085F010008A0
:1000C0005F0100085F0100085F0100085F01000890
:1000D0005F0100085F0100085F0100085F01000880
:1000E0005F0100085F0100085F0100085F01000870
:1000F0005F0100085F0100085F0100085F01000860
:100100005F0100085F0100085F0100085F0100084F
:100110005F0100085F0100085F0100085F0100083F
:100120005F0100085F0100085F0100085F0100082F
:10013000DFF80CD000F0A4F800480047A502000842
:10014000B00B00200648804706480047FEE7FEE760
:10015000FEE7FEE7FEE7FEE7FEE7FEE7FEE7FEE777
:10016000E908000831010008EFF3108072B670470B
:1001700080F310887047334A1368012B04D04FF086
:1001800001031360304A1060304A116030484FF06C
:10019000805101607047EFF3108272B62948016800
:1001A00091B14FF0000101602748016829B1EFF3D8
:1001B000098121E9F00F0068016024490968096894
:1001C000B1E8F00F81F3098882F310884EF0040E35
:1001D00070471E4908601C494FF00000086019492B
:1001E0004FF0010008601B484FF47F01D0F8002059
:1001F00041EA0201016016484FF080510160164843
:100200000068006880F3088861B662B670471EF027
:10021000040F0CBFEFF30880EFF3098020E9F00F23
:1002200040F804ED1EF0040F0CBF80F3088880F343
:10023000098800B500F054FE5DF804EB4EF0040EA2
:1002400070470000980700207C05002084050020EE
:1002500004ED00E020ED00E008ED00E0D2B201E0A6
:1002600000F8012B491EFBD270470022F6E710B5BB
:1002700013460A4604461946FFF7F0FF204610BD14
:10028000064C074D06E0E06840F0010394E80700E3
:1002900098471034AC42F6D3FFF74EFF781F0008A2
:1002A000981F000880B501F037FD002080BD0000D8
:1002B000FEE70000704700002DE9F04F83B00C68A6
:1002C000002C00F0EA80A0F18042A2F5843240F2D6
:1002D000004E4FEAB22241F60047C4F2010E0092EE
:1002E000C4F20107062200254FF001094FF0000B70
:1002F0004FF0000AB84208BF0522019209E000BF92
:100300000C680BF1010B34FA0BF205F1040500F057
:10031000C48009FA0BF814EA080CF1D04C684FF6C7
:10032000FF72C1F21002944210DC122C50D8DFE8A8
:1003300004F0330A41454F4F4F4F4F4F4F4F4F4FF0
:100340004F4F4F484C00D1F80CA041E04FF6FF72E0
:10035000C1F2210294420FDC0022C1F21102944248
:100360001AD00022C1F21202944215D00022C1F22A
:100370002102944210D02BE00022C1F222029442CA
:100380000AD00022C1F23102944205D00022C1F20B
:10039000320294421CD100BF8C6844B1012C14BFBE
:1003A000C0F81480C0F810804FF0080A10E04FF039
:1003B000040A0DE0CC6804F1080A09E04FF0000AD5
:1003C00006E0CC6804F1040A02E0CC6804F10C0AEF
:1003D0002C460746BCF5807F24BF203C04373A6892
:1003E0000F2303FA04F6B2430AFA04F422433A60F4
:1003F000CA79D2067FF584AF41F21804C4F2020430
:1004000022684FF6084842F0010222602268CFF6C7
:10041000FF7802F001020292029A2BF0030272446A
:1004200052F8084005F00C0603FA06F7009BBC439F
:10043000019F052B38BF1F4607FA06F6344342F8E2
:1004400008404C68E203DEF8002054BF22EA0C07A3
:1004500042EA0C07A203CEF80070DEF8042054BF75
:1004600022EA0C0742EA0C07E202CEF80470DEF83A
:10047000082054BF22EA0C0742EA0C07A20240F20D
:100480000C44CEF80870C4F20104226854BF22EA7A
:100490000C0242EA0C02226032E703B0BDE8F08FA2
:1004A00040F2AC70C2F200000068704780B542F2C2
:1004B0000000C4F20200016841F010010160032055
:1004C00000F062F8002000F005F800F02BF80020A2
:1004D00080BD0000B0B540F23402C2F2000240F22A
:1004E00000011278C2F200014FF47A730968B3FB7D
:1004F000F2F20446B1FBF2F1084600F073F80F2C5B
:100500004FF001050CD858B94FF0FF3021460022BA
:10051000002500F029F840F23800C2F20000046023
:100520002846B0BD82B041F21800C4F20200016852
:10053000012241F001010160016801F00101019116
:100540000199416841F080514160406800F080505D
:10055000009000980420C4F20100016862F31A615F
:10056000016002B07047000070B514460D460646A3
:1005700000F074FA2946224600F046F9014630465A
:1005800000F074FA70BD000080B500F081FA80BD03
:1005900040F20000C2F200000068704780B5FFF72B
:1005A000F7FF41F20401C4F20201096841F6B252B8
:1005B000C1F30221C0F60002515CC84080BD0000BA
:1005C00080B5FFF7E5FF41F20401C4F202010968BA
:1005D00041F6B252C1F3C221C0F60002515CC840DC
:1005E00080BD000080B500F027F980BD002804BF61
:1005F0000120704710B5044690F8390028B9002052
:1006000084F83800204600F021F8242084F83900CE
:100610002068C16821F40051C160204600F08CF9C7
:100620002068016921F490410161416921F02A01AA
:100630004161C16841F40051C16000202021E063A4
:1006400084F8391084F83A1010BD000070B586B0F7
:10065000002640F600040596CDE90366C4F20104C5
:10066000006804F540518842029601D006B070BD82
:1006700041F21800C4F20200016802AD41F4804169
:100680000160016801F4804101910199016841F024
:10069000040101600068294600F0040001900198FF
:1006A0004FF4007002900220039003200590204632
:1006B000FFF702FE4FF48060CDE90206204629468E
:1006C0000496FFF7F9FD06B070BD00002DE9F0417A
:1006D000044690F8390020280DD10E4600294FF02D
:1006E000010050D01746002A08BFBDE8F08194F8F9
:1006F0003800012802D10220BDE8F081012084F8F1
:1007000038000020E06321201D4684F83900FFF7FF
:10071000C7FEA784E784E18C804661B9204640216A
:1007200042462B4600F050F938B30320BDE8F08173
:10073000E08C0028F2D0E08C80210138E084A768AA
:10074000204642462B4600F03FF9B7F5805F0DD1B9
:100750000028EAD13088216922686FF35F200029E0
:10076000506014BF01360236E2E700BF0028DCD13A
:1007700016F8010B21684860DAE7202084F8390078
:10078000002084F83800BDE8F081000083B041F219
:100790001800C4F20200016841F020010160016804
:1007A00001F0200102910299016841F00401016009
:1007B000016801F0040101910199016841F008010B
:1007C0000160006800F008000090009803B07047D6
:1007D00080B540F2400043F60001C2F20000C4F2CE
:1007E000010100234FF00C0C4FF4165280E80E006C
:1007F000C0E90333C0E905C3C361FFF7F7FE80BD5D
:10080000FEE700007047000000F0070080F00703DB
:10081000042B28BF04234FF0FF3C03380CFA03F3EA
:1008200038BF0020994381400CFA00F022EA000012
:100830000843704770470000B0B501380024B4EB9E
:10084000106F1CBF0120B0BD4EF21005CEF20005A6
:1008500068604FF0FF300F2100F008F90720AC600E
:1008600028602046B0BD000080B500F01FFC00F0FD
:10087000B3FF00F029FC80BD41F20400C4F2020085
:10088000016801F00C01082941F20021C0F27A014F
:1008900017D102680368C2F38342DB0302F102024C
:1008A00005D440F60011C0F23D01514309E0036850
:1008B0009B0301D4514304E040F60011C0F23D0116
:1008C000514340F20002C2F200021160006841F69A
:1008D000A251C0F30310C0F60001085C116821FAB0
:1008E00000F010607047000041F20000C4F2020006
:1008F0000168002241F0010101604168CFF6FF026A
:100900001140416001684FF6FF72CFF6F662114068
:100910000160016821F480210160416821F4FE0139
:1009200041604FF41F0181604EF60850CEF2000086
:100930004FF000610160704710B504460068D4E9CB
:1009400002C22369016921F44051114301616169C7
:1009500043EA0C021143C26841F20C639A4311430B
:10096000C1604169A26921F44071114343F600025C
:10097000C4F201029042416102D0FFF70FFE01E094
:10098000FFF71EFE6268192148439100B0FBF1F0A9
:1009900048F21F51C5F2EB11A0FB01235A096FF079
:1009A000630302FB0300322303EB0010A0FB0101F1
:1009B000F02303EA5113206803EB0212C1F3431141
:1009C0001144816010BD00002DE9F041044600682B
:1009D00000680840884202D10020BDE8F0811D4631
:1009E0000E4690465F1C04E0206800683040B0422C
:1009F000F2D0002FF8D02DB1FFF752FDA0EB080088
:100A0000A842F1D92068C16821F4D071C160416960
:100A100021F001014161202084F8390084F83A0076
:100A2000002084F838000320BDE8F081FEE70000D4
:100A3000411E0020B0EB116F18BF70474EF210023C
:100A4000CEF2000251604EF62351CEF20001FF2398
:100A50000B70906007201060704700004EF60C503D
:100A6000CEF200000068C0F3022070474EF6145327
:100A700000F00F02CEF2000309011A4400F16043B6
:100A8000B0F1FF3FC8BF03F564421170704700002A
:100A90004EF60C51CEF200010A684FF6FF031A40E1
:100AA00060F30A2242F0806040F0FD7008607047F9
:100AB000002804BF00207047C1B209B101200CE03A
:100AC00010F47F4102D0090A092006E010F47F01EA
:100AD00007BF010E1920090C112041F6BA52C0F6C9
:100AE0000002515C0844704740F20C60C2F2000002
:100AF0000168081A18BF0120704700002DE9F0476F
:100B000082B00446DDF83090DDE90A8A14301D46D3
:100B100016460F4600F004FB284623214246C4E94E
:100B20000876C4E90A5800F05DFB04F120030FCBFE
:100B30001A4441F29153043AC0F6000300F094FACB
:100B400041F24D72E061002704F14400C0F600025A
:100B50002146234684F836A084F835A0C4E90E79EE
:100B6000C4F84090276384F83470C4E91C77009778
:100B7000019700F099FE02B0BDE8F08780B5DDF87E
:100B800008C000F11C0E0CF0FE0C80F809C01430F7
:100B90004FF0000C8EE80E1000F0C6FA80BD000089
:100BA00080B5143000F016FB80BD000003680246DB
:100BB0000A290CD14CF6CD40CCF6CC40A3FB000169
:100BC000C90801EB8100A3EB40001160704703F0FE
:100BD0000F00190911607047FFF768FCFFF7D6FD99
:100BE000FFF7F6FD40F24000C2F2000003A103222D
:100BF0000323FFF76BFD00BF00BFFDE73132330079
:100C000080B500F013F9FFF7E7FF80BD2DE9F04F45
:100C100087B0DDF848A004465FEA4A6041F6D2603A
:100C200041F6C16BC0F60000C0F6000B58BF83460A
:100C30005FEACA600D4648BF2AF0010A5FEACA703F
:100C40004FF030011E4608BF20215FEA8A700692ED
:100C500001D400200DE0B2F1FF3F07DD5FEA4A70EA
:100C60005ABF202000EA8A002B2002E05042069062
:100C70002D20019006980091A8B10698C0B14FF0C0
:100C8000000906AF0DF1080838463146FFF78EFF20
:100C90001BF80010069A09F1010008F80910002A53
:100CA0008146F1D105E030208DF80800012000E0F8
:100CB0000020119E109BB0423246C8BF02461AF077
:100CC000110FA3EB020105D0DDF804C0BCF1000F49
:100CD00024D129E0DDF804C00027BCF1000FE6466E
:100CE00018BF4FF0010E0029C8BF012707EA0E0701
:100CF000C91B012959DB79421944891A202300BFF5
:100D0000AC42A1F1010138BF2370002904F10104B4
:100D1000F6DC4FF0FF31BCF1000F05D0AC4238BF1C
:100D200084F800C0013901345FEACA630DD4012997
:100D300037DB009BAC42A1F1010138BF23700029D1
:100D400004F10104F6DC4FF0FF31B04209DA302340
:100D5000AC42A2F1010238BF2370904204F10104B9
:100D6000F6DB66B101280ADB02AA013AAC423CBFBD
:100D7000135C237004F101040EB10138F6DC012983
:100D80000BDB481C202100BFAC42A0F1010038BFA2
:100D90002170012804F10104F6DC204607B0BDE80B
:100DA000F08F0139B042D2DBDBE70139BCF1000F33
:100DB000B4D1B9E710B584B040F2F8024FF48061C5
:100DC000C2F2000240F2F8440A20CDE90021C2F24A
:100DD000000440F601424FF0140C029006A1C0F648
:100DE000000220460023CDF80CC000F059FC20463C
:100DF00000F096FC04B010BD6D61696E000000004B
:100E0000B0B541F6707441F66C70C0F60004C0F6DF
:100E10000000A04228BFB0BD41F66C75C0F60005C9
:100E200055F8040B8047A542FAD3B0BDB0B541F6E2
:100E3000747441F67070C0F60004C0F60000A04261
:100E400028BFB0BD41F67075C0F6000555F8040B1B
:100E50008047A542FAD3B0BD80B5FFF785F940F2CF
:100E60000861C2F200010A8801320A80FFF780F9A6
:100E700080BD000080B5FFF777F940F20861C2F24B
:100E800000010A88013A13B2002B0A8002DDFFF745
:100E90006FF980BD00220A80FFF76AF940F27450B2
:100EA000C2F200000068002808BF80BD00F01CFAF4
:100EB00080BD000080B5FFF7DFFC40F20000C2F209
:100EC0000000006844F6D351C1F26201A0FB0101A9
:100ED0008809FFF7ADFDFFF793FF80BD7047000065
:100EE00010B540F27851C2F200010968044621B100
:100EF00020468847002808BF10BD216C41F65B7072
:100F0000C0F6000000F0EEF8616A41F61A70C0F613
:100F1000000000F0E7F8A16A41F62770C0F6000073
:100F200000F0E0F8E16A41F63470C0F6000000F02D
:100F3000D9F8216B41F64170C0F6000000F0D2F8FC
:100F4000616841F64E70C0F6000000F0CBF8A16871
:100F50001DA000F0C7F8E1681FA000F0C3F82169E8
:100F600021A000F0BFF8616923A000F0BBF8A169DF
:100F700025A000F0B7F8E16927A000F0B3F8216AD6
:100F800029A000F0AFF8616B2BA000F0ABF8A16BCB
:100F90002DA000F0A7F8E16B2FA000F0A3F82078B7
:100FA000400706D441F6E360C0F6000000F09AF86E
:100FB00008E000F0AFFB014641F6FD60C0F600001E
:100FC00000F090F8FEE700BF7230353A2030782507
:100FD0003038780A000000007230363A2030782528
:100FE0003038780A000000007230373A2030782517
:100FF0003038780A000000007230383A2030782506
:101000003038780A000000007230393A20307825F4
:101010003038780A000000007231303A20307825EC
:101020003038780A000000007231313A20307825DB
:101030003038780A000000007231323A20307825CA
:101040003038780A00000000206C723A2030782591
:101050003038780A000000002070633A203078258C
:101060003038780A0000000070B5043222F0070E14
:101070004BF6EF64AEF1400C6FF04302CDF6AD6479
:101080000EEB02050432161D6C60F9D100224FF000
:1010900080744EE908124EE906224EE904234EF808
:1010A000080C60464EF8044C70BD000080B5FFF798
:1010B0005BF840F28051C2F200010A7801320A70F6
:1010C000FFF756F880BD000080B5FFF74DF840F2FD
:1010D0008051C2F200010A78013A0A70FFF748F81D
:1010E00080BD000083B010B581B040F288548446C2
:1010F00003A8C2F200040EC003AB20467F21624663
:10110000009300F049FC2046FFF7E8FE01B0BDE87F
:10111000104003B070470000C0E9000070470000B5
:10112000C0E9000070470000C0E9000070470000FF
:10113000026851600A6001604860704740F20C61CB
:10114000C2F200010A6850600260086041607047A6
:10115000026851600A60016048607047426811602F
:101160004A60416008607047426811604A604160AF
:10117000086070470168081AB0FA80F040097047AB
:1011800040F2A070C2F200000168081AB0FA80F0C4
:1011900040097047D0E900124A6042681160C0E916
:1011A00000007047D0E900124A6042681160C0E94F
:1011B00000007047D0E900124A6042681160C0E93F
:1011C00000007047D0E900124A6042681160C0E92F
:1011D00000007047D0E900124A6042681160C0E91F
:1011E0000000704710B50446042A5FFA81FC01D361
:1011F000A00707D020461AB111466246FFF72EF825
:10120000204610BD4CEA0C20102A40EA004111D3C0
:10121000A4F11000134600BF103B40F8101F0F2B25
:10122000C0E90111C160F7D802F00F021030042AA2
:10123000E1D302E02046042ADDD31346043B032B0E
:1012400040F8041BFAD802F00302D4E7B0B5044614
:1012500000202072FEF788FF054604F10C00FFF71E
:10126000A1FF2846FEF784FFB0BD000040F2040253
:101270000021C2F2000200BF535C834204BF501839
:1012800070471031302904BF00207047F4E7000098
:10129000F0B581B00446084615460F46FFF7E6FF55
:1012A0000646FFF7D9FD0436304600BF0068B0425D
:1012B000FCD1FFF7DFFD47F0800020722046294671
:1012C000082200F0F9F8FEF74FFF054604F10C0183
:1012D0003046FFF72DFF2846FEF74AFF01B0F0BD6C
:1012E000007AC0097047000010B5FEF73DFF40F2DC
:1012F0000861C2F200010988044619B12046FEF7D0
:1013000037FF10BD40F21470C2F200000068FFF712
:10131000CFFB40F214610138C2F2000140F2745C6C
:1013200051F830E0C2F2000CDCF80020AEF11403FA
:101330009A42E3D040F27051C2F20001087040F2CC
:101340008050CCF80030C2F20000017802F11C009D
:1013500000290EF1080102D0FEF70DFFCEE7FEF7DF
:101360000AFFCBE7B0B50446FEF7FEFE054694F84B
:10137000340094F8351000F0F000013084F83400A7
:1013800040F21460C2F2000000EBC10004F114014D
:10139000FFF7E4FE40F21471C2F20001A06B0A688C
:1013A000104308602846FEF7E3FEB0BDB0B5054621
:1013B000FEF7DAFE044605F11400FFF7FBFE95F890
:1013C000350040F21461C2F2000101EBC000FFF7EA
:1013D000D1FE40B140F21471C2F20001A86B0A685C
:1013E00022EA000008602046FEF7C2FEB0BD000001
:1013F00080B582B00AA0FFF775FE0CA0FFF772FE61
:101400000FF24C0C15A0032101220323CDF800C0DC
:10141000FFF768FE19A0FFF765FE02B080BD00BFB0
:101420000A205C207C202F0A000000002D2052544E
:10143000202D2020202020546872656164204F7088
:1014400065726174696E672053797374656D0A0003
:10145000536570202031203230323000202F207C24
:10146000205C202020202025642E25642E25642049
:101470006275696C642025730A00000020323030E8
:1014800036202D203230313920436F7079726967F0
:1014900068742062792072742D74687265616420AA
:1014A0007465616D0A000000411E00BF11F8012F34
:1014B000002AFBD1081A704710B5044662B1C2F188
:1014C0000102601C0B7800F8013C3BB10132013194
:1014D000012A00F10100F5D1204610BD002AFBD001
:1014E0005142FEF7C2FE204610BD0000B0B540F2EA
:1014F000086040F21465C2F200000024C2F2000548
:10150000048000BF2819FFF707FE0834B4F5807F78
:10151000F8D140F27050C2F200001F21017040F279
:101520007450C2F200000021016040F21470C2F257
:101530000000016040F20C60C2F20000FFF7ECFD19
:10154000B0BD000080B540F21470C2F20000006827
:10155000FFF7AEFA40F21461C2F2000101EBC000E5
:1015600050F8080C40F27452A0F11401C2F20002CB
:1015700008301160FEF72DFE80BD000080B540F2FE
:10158000A070C2F20000FFF7CFFD80BD70470000E1
:10159000B0B540F27450C2F200000568FEF7E4FDF9
:1015A00004462846FFF702FF042085F8340005F1C1
:1015B000440000F069F92846FFF792FE012801D1A6
:1015C000286F20B105F11400FFF7B8FD02E02846AE
:1015D000FFF73CFE2046FEF7CBFDFFF785FEB0BDD2
:1015E00000F002F8FCE70000F0B581B0FFF77CFAEC
:1015F00020B340F20C67C2F2000700BFFEF7B4FD53
:101600000446FFF771FA00B33E683046A6F11405B0
:10161000FFF7C0FDFFF720FCF16D09B128468847B0
:101620002846FFF75DFE01280AD0FFF723FC20467D
:10163000FEF79EFDFFF758FA0028DFD101B0F0BD9C
:101640002846FFF703FEFFF715FC2046FEF790FD46
:1016500001B0F0BD10B584B040F218728021C2F222
:10166000000240F280041F20CDE90021C2F20004F4
:1016700041F2E1524FF0200C029007A1C0F60002A7
:1016800020460023CDF80CC000F00AF8204600F0F8
:1016900047F804B010BD00BF7469646C65000000B9
:1016A0002DE9F04784B015460A46DDE90C86DDE9F0
:1016B0000E9A01211C460746FFF7EAFD38462946E7
:1016C00022464346CDE90069CDF808A0FFF716FA97
:1016D000002004B0BDE8F087B0B5044690F83400AF
:1016E00000F00F0002281CBF4FF0FF30B0BDFEF726
:1016F0003BFD054604F11400FFF764FD04F14400CE
:1017000000F032F92846FEF733FD2046FFF72AFEA7
:101710000020B0BD40F27450C2F200000068704773
:1017200080B590F83610012280F8351002FA01F1E8
:101730008163022180F83410FFF7CEFFFFF7EAFF44
:10174000002818BFFFF7D0FD002080BD10B504466B
:101750006FF00100206304F11400FFF733FD204611
:10176000FFF700FEFFF7C0FD10BD000070B5FEF7EB
:10177000FBFC40F27451C2F200010E68044696F878
:10178000341001F00F0101291AD1354655F8140F14
:101790006968884214D02846FFF714FD96F8350092
:1017A00040F21461C2F2000101EBC0002946FFF7CC
:1017B000DBFC2046FEF7DCFCFFF796FD002070BD49
:1017C0002046FEF7D5FC002070BD000040F29C7062
:1017D000C2F200000068704780B540F29C70C2F20F
:1017E0000000016801310160FFF794FF016C0139CD
:1017F000016402D000F008F880BDC16B0164FFF7FE
:10180000B5FF00F001F880BD2DE9F04381B0FFF78E
:10181000DDFF0546FEF7A8FC8046FFF7B1FC28B1C6
:101820004046FEF7A5FC01B0BDE8F08340F2A07988
:101830004FF6FE74C2F20009C7F6FF7404E000BF61
:10184000FFF79EFC0028EBD1D9F800707869281AC0
:10185000A042E5D8A7F114063046FFF7A1F9D7E971
:1018600002108847FFF7B2FF17F80B1C054601F07E
:10187000030001F0FE01032807F80B1CE0D13046FD
:1018800000F028F8DCE70000B0B50446FEF76CFC79
:1018900005462046FFF784F92846FEF769FC2046F6
:1018A000FFF7D4FC0020B0BD2DE9F04182B0154611
:1018B0000A46DDE908860A211C460746FFF7E8FCD0
:1018C00038462946224643460096FFF757F902B0AC
:1018D000BDE8F08170B582B00446FEF745FC0546D0
:1018E0002046FFF75DF9607A00F0FE00607228463E
:1018F000FEF73EFCFFF76AFF616A0844A062FEF74C
:1019000033FC40F2A071C2F200014A6806468A42E6
:10191000019112D0A06A4FF6FE72C043C7F6FF7263
:101920000B4600BF1B685B690344934205D3019BD0
:101930004D681B689D420193F4D140F2A870C2F239
:101940000000016801310160019804F11401FFF702
:10195000FFFB607A40F0010060723046FEF708FC41
:10196000002002B070BD0000B0B50446407AC00748
:1019700004BF4FF0FF30B0BDFEF7F6FB0546204632
:10198000FFF70EF92846FEF7F3FB607A00F0FE0041
:1019900060720020B0BD00002DE9F04F87B098467E
:1019A0000446451806920491002948BF4FF0FF35C0
:1019B00005900FE05BF8042B5FFA89F62046294674
:1019C000CDE9007A0296FFF721F9D8460699044638
:1019D0000131069106980078252807D0002800F0EC
:1019E0008381AC4238BF2070601CEFE706984FF04F
:1019F000000901300178A1F12003102B16D8102224
:101A0000DFE803F00E141410141414141414141238
:101A1000140A14140900012249EA02090130E9E715
:101A20000822F9E72022F7E70422F5E7A1F13002C6
:101A3000092A069004D806A800F084F907460EE0AB
:101A40002A290AD10130069058F8047BB7F1FF3FEC
:101A5000DCBF7F4249F0100901E04FF0FF370698E4
:101A600001782E290CD1024612F8011FA1F1300392
:101A7000092B069207D806A800F064F90CE000BF15
:101A80004FF0FF3A0AE02A2904D10230069058F8B4
:101A9000040B01E04FF0FF3020EAE07A0699C346DC
:101AA000087840F004026C2A06BF0131069100203C
:101AB000069909782539532900F264800A23DFE862
:101AC00011F05B0061006100610061006100610074
:101AD00061006100610061006100610061006100FE
:101AE00061006100610061006100610061006100EE
:101AF00061006100610061006100610061006100DE
:101B000061006100610061006100610061006100CD
:101B100061006100610061006100610061006100BD
:101B200061006100610061006F006100610061009F
:101B3000610061006100610061006100610080007E
:101B400054006100610061006100540061006100A7
:101B50006100610061009200970061006100AC00CB
:101B60006100720061006100710049F002090A23FE
:101B70006C283FF41FAF19E0AC423CBF2520207019
:101B8000601C22E7AC423CBF25202070069A601CF6
:101B90001178002971D0A84238BF0170A01C14E749
:101BA00049F0400910236C283FF404AF5BF8042B84
:101BB00068287FF401AF5FEA89704CBF12B292B21D
:101BC000FAE65FEAC96052D4022F4FF0200257DBD9
:101BD000AC42A7F1010738BF2270012F04F10104C4
:101BE000F6DC00274DE008236C283FF4E3AEDDE788
:101BF000781CB0FA80F04FEA501040EA090008BFA4
:101C000008275BF8042B5FFA80FCCDE9007A2046B8
:101C100029461023CDF808C0D5E6D84658F8046BFD
:101C200041F6BA60C0F60000002E08BF06463046F6
:101C3000FFF73AFC50450146C8BF5146BAF1000FC4
:101C4000D8BF01465FEAC96013D4B9424FF0200300
:101C50002EDA00BFAC42A7F1010738BF2370B942AA
:101C600004F10104F6DB4F1E012924DA2DE02022C5
:101C700007E0202301291EDA27E0511E0691A4E681
:101C8000013FAC423CBFDBF8000020700BF10408C0
:101C9000022F04F10100FFF699AE791CA842A1F1D0
:101CA000010138BF0270022900F10100F6DC8DE667
:101CB000013F012909DB0846AC423CBF3278227063
:101CC0000134013806F10106F6D1B9422046BFF6CB
:101CD0007DAE00BFA842A7F1010738BF0370B9422B
:101CE00000F10100F6DB71E60498059A002848BF70
:101CF000D04328B120460021AC4228BF681E0170A5
:101D0000A01A07B0BDE8F08F002070470020704790
:101D1000002070470020704780B5FEF725FAFFF7D6
:101D2000C9F8FFF765FBFFF729FCFFF7DFFBFFF7BB
:101D300041F8FFF72BFCFFF78DFCFFF703FC0020B9
:101D400080BD000080B501680A78303A092A15D8AC
:101D50004A1E4FF0000C1346911C016013F801EF6E
:101D60000CEB8C0192780EEB4101A1F1300CA2F149
:101D700030010A291A46EFD3604680BD4FF0000CAF
:101D8000604680BD02E008C8121F08C1002AFAD1CF
:101D900070477047002001E001C1121F002AFBD1EB
:101DA0007047000000000000000001020304060765
:101DB0000809000000000102030400000100020005
:101DC0000100030001000200010004000100020004
:101DD00001000300010002000100050001000200F3
:101DE00001000300010002000100040001000200E4
:101DF00001000300010002000100060001000200D2
:101E000001000300010002000100040001000200C3
:101E100001000300010002000100050001000200B2
:101E200001000300010002000100040001000200A3
:101E30000100030001000200010007000100020090
:101E40000100030001000200010004000100020083
:101E50000100030001000200010005000100020072
:101E60000100030001000200010004000100020063
:101E70000100030001000200010006000100020051
:101E80000100030001000200010004000100020043
:101E90000100030001000200010005000100020032
:101EA0000100030001000200010004000100020023
:101EB00001000300010002000100284E554C4C298E
:101EC00000303132333435363738394142434445B6
:101ED0004600303132333435363738396162636425
:101EE00065660068617264206661756C74206F6E4F
:101EF0002068616E646C65720D0A0D0A006861727B
:101F000064206661756C74206F6E20746872656100
:101F1000643A2025730D0A0D0A007230303A2030E1
:101F200078253038780A007230313A203078253000
:101F300038780A007230323A203078253038780A02
:101F4000007230333A203078253038780A00723009
:101F5000343A203078253038780A007073723A208D
:101F60003078253038780A00151D00080D1D00084E
:101F7000091D0008111D0008981F0008000000201E
:101F800040000000841D0008D81F00084000002009
:101F9000700B0000941D00080024F40001000000F4
:101FA0000800002008000020780000000200000067
:101FB0001800002018000020200000000A00000087
:101FC00028000020280000202C0000000100000054
:081FD0001000000000000000F9
:0400000508000131BD
:00000001FF
